S00F0000747261666669632E7372656336
S11300000C942A000C943F000C943F000C943F0085
S11300100C943F000C943F000C943F000C943F0060
S11300200C943F000C943F000C943F000C943F0050
S11300300C943F000C943F000C943F000C943F0040
S11300400C943F000C943F000C943F000C943F0030
S11300500C943F0011241FBECFE5D8E0DEBFCDBF16
S113006010E0A0E6B0E0E8E3F3E002C005900D92F2
S1130070AA36B107D9F70E94D9000C949A010C94BE
S11300800000411138C0813091F028F08230D9F05D
S1130090833029F108952BB381E090E002C0880FEA
S11300A0991F6A95E2F7809582238BBB089528B344
S11300B081E090E002C0880F991F6A95E2F780956D
S11300C0822388BB089525B381E090E002C0880FA5
S11300D0991F6A95E2F78095822385BB089522B320
S11300E081E090E002C0880F991F6A95E2F780953D
S11300F0822382BB0895413099F5813089F028F03C
S11301008230C9F0833011F108952BB381E090E07F
S113011002C0880F991F6A95E2F7822B8BBB089562
S113012028B381E090E002C0880F991F6A95E2F736
S1130130822B88BB089525B381E090E002C0880F2C
S1130140991F6A95E2F7822B85BB089522B381E05B
S113015090E002C0880F991F6A95E2F7822B82BB58
S113016008956130A1F4813049F028F0823049F0DB
S1130170833051F008958FEF8ABB08958FEF87BBCA
S113018008958FEF84BB08958FEF81BB089581118B
S11301900FC0813041F028F0823039F0833039F0DB
S11301A008951ABA089517BA089514BA089511BA99
S11301B008950E94420161E070E080E090E00E94B6
S11301C0B100CAE01CC08C2F0E94840141E060E0B1
S11301D080E00E94410040E062E080E00E94410033
S11301E040E061E080E00E9441002FEF89E698E161
S11301F0215080409040E1F700C00000C150C4305D
S113020010F7C3E01CC08C2F0E94840140E062E020
S113021080E00E94410040E060E080E00E944100F4
S113022041E061E080E00E9441002FEF89E698E11F
S1130230215080409040E1F700C00000C150C1113E
S1130240E2CFCAE01CC08C2F0E94840140E061E030
S113025080E00E94410040E060E080E00E944100B4
S113026041E062E080E00E9441002FEF89E698E1DE
S1130270215080409040E1F700C00000C150C111FE
S1130280E2CF9FCF61E070E082E090E00E94B10095
S113029061E070E083E090E00E94B1000895CF93A4
S11302A0DF93CDB7DEB72A970FB6F894DEBF0FBE43
S11302B0CDBF9AE0E0E6F0E0DE01119601900D92E8
S11302C09A95E1F7E1E0F0E0EC0FFD1FE80FF11D76
S11302D0808185BBE1E0F0E0EC0FFD1FE60FF11D2E
S11302E0808182BB2FE58AEE90E0215080409040CF
S11302F0E1F700C000002A960FB6F894DEBF0FBEE7
S1130300CDBFDF91CF9108959DEC899F912D11244C
S1130310692F669566956695660F262F220F220F24
S1130320620F861B682F892F8695869586950E9475
S10B03304F010895F894FFCF7A
S10D03383F065B4F666D7D077F6F83
S9030000FC
